13:37:53.984191 IP 10.177.56.216.43269 > EISUATEXP08.8048: Flags [P.], seq 3687105531:3687105607, ack 4193653148, win 65535, length 76
        0x0000:  4500 0074 833e 4000 3306 49d3 0ab1 38d8  E..t.>@.3.I...8.
        0x0010:  0ab1 2c39 a905 1f70 dbc4 c3fb f9f6 119c  ..,9...p........
        0x0020:  5018 ffff 7bd3 0000 004a 3030 3030 3030  P...{....J000000
        0x0030:  4953 4f30 3036 3030 3030 3430 3038 3030  ISO0060000400800
        0x0040:  3832 3230 3030 3030 3030 3030 3030 3030  8220000000000000
        0x0050:  3034 3030 3030 3030 3030 3030 3030 3030  0400000000000000
        0x0060:  3035 3036 3038 3037 3533 3030 3030 3239  0506080753000029
        0x0070:  3030 3103                                001.
13:37:53.984227 IP EISUATEXP08.8048 > 10.177.56.216.43269: Flags [.], ack 76, win 64012, length 0
        0x0000:  4500 0028 093e 4000 4006 b71f 0ab1 2c39  E..(.>@.@.....,9
        0x0010:  0ab1 38d8 1f70 a905 f9f6 119c dbc4 c447  ..8..p.........G
        0x0020:  5010 fa0c 7a8d 0000 
